S31500000400FFFFFFFFFFFFFFFFFFFFFFFFFEFDFFFFF9
S31500008000D0150020F98600000187000003870000D4
S3150000801005870000078700000987000000000000B0
S315000080200000000000000000000000007D84000049
S315000080300D87000000000000058500005585000042
S3150000804013870000138700001387000013870000C2
S3150000805013870000138700001387000013870000B2
S3150000806013870000138700001387000013870000A2
S315000080701387000013870000138700001387000092
S3150000808013870000138700005DB30000138700000C
S315000080901387000013870000138700001387000072
S315000080A01387000013870000138700001387000062
S315000080B01387000013870000138700001387000052
S315000080C0138700001387000013870000BBB700006A
S315000080D01387000013870000138700001387000032
S315000080E0138700003FB100001387000013870000CC
S315000080F01387000013870000138700001387000012
S315000081001387000013870000138700001387000001
S3150000811013870000138700001387000013870000F1
S3150000812013870000138700001387000013870000E1
S31500008400DFF80CD005F04AFF004800477B920000D9
S31500008410D015002080F309887047EFF30980704774
S31500008420684680F3098804480078C00714BF022014
S31500008430032080F31488704764E80000DFF818C052
S31500008440EFF305831B0618BF6047EFF31483DB07C2
S3150000845008BF604700DF704777D90000DFF818C013
S31500008460EFF305831B0618BF6047EFF31483DB07A2
S3150000847008BF604700DF7047AFD90000EFF30980FF
S31500008480816911F8021C39BB90E80F10E047EFF341
S31500008490098C194B93E80600914218D059B10CB4D7
S315000084A04FF0010381F821302CE9F00FC1F824C008
S315000084B000F011FF0CBC1A60D2F824C0BCE8F00F23
S315000084C092F821308CF309881BB192F82000CCF881
S315000084D000006FF0020E704710B5084A126891420C
S315000084E009D8074C54F8214090E80F10A047EFF345
S315000084F0098C8CE80F0010BD340100201CE300003D
S315000085001CE3000005F070FB114B93E80600914256
S315000085101BD00CB44FF0000381F82130EFF3098C27
S315000085202CE9F00FC1F824C000F0D5FE0CBC1A608F
S31500008530D2F824C0BCE8F00F8CF3098892F82130F9
S315000085401BB192F82030CCF800306FF0020E704765
S315000085503401002005F090FBD6E7000005F08BFB08
S3150000856005F08AFBD0E700005B484CF22051C18140
S315000085704DF62811C1814FF4E971018057494FF436
S315000085808810486456480021017056480173242219
S3150000859042709A220270C27802F01F02C270032251
S315000085A00271417181798907FCD58179C1F3810115
S315000085B00229FAD102714021417181798906FCD5DF
S315000085C081794906FCD51A2101708179C1F38101AF
S315000085D00329FAD181794906FCD543494FF4004075
S315000085E00860704730B53F490878404B84094FF41E
S315000085F000404FF001020FD00C78B2EB941F58D117
S315000086004B78DB075ED0087A3949C0F3420002FA9C
S3150000861000F0B1FBF0F055E04C7964063ED40C78DE
S31500008620640710D40C7BE40700D118460B78C3F31B
S31500008630C20302FA03F3DBB2B0FBF3F04B7813F09C
S31500008640300F00D04009C97801F0E00111F01F0F8A
S3150000865038D14911082935D2DFE801F004070B0F9C
S3150000866013171A1D00EB800005E000EB80000002E6
S3150000867028E0C0EB0010C00124E000EB80004002BF
S3150000868020E04FF4377148431CE04FF4B761FAE736
S3150000869040F69501F7E740F67131F4E70879497934
S315000086A000F01F00401CB3FBF0F001F01F01183171
S315000086B0E9E70C780225B5EB941F0BD1097BC907B6
S315000086C000D118460549496C02EB1171B0FBF1F077
S315000086D00849086030BD00000020054000800440C5
S315000086E0005006400040064008ED00E000127A0007
S315000086F000093D0000000020064880470648004764
S31500008700FEE7FEE7FEE7FEE7FEE7FEE7FEE7FEE73B
S31500008710FEE7FEE7698500000184000008B54FF416
S315000087207A5148430090401E0090FCD108BDF0B538
S31500008730037842784479D0F80200D50764F31F60C5
S31500008740F94C08D0DE074FF0200502D0C4F884505B
S3150000875001E0C4F88850950708D59E074FF04005FC
S3150000876002D5C4F8845001E0C4F88850150602D535
S31500008770EE4EDD093560002590B3ED4EB04200D9CE
S3150000878030464FF0E026B561EA4F7843EA4FB0FB3A
S31500008790F7F0706105203061D00700D0D3B990079B
S315000087A006D5D4F89000C0F3C010B0EB530F11D12A
S315000087B0500702D5B5EB930F0CD1900602D5B5EB59
S315000087C0531F07D110060AD5206DC0F34000B0EB49
S315000087D0D31F04D03069C0F300400028DCD03561D7
S315000087E0D4F89000226DC0F3C01045EA4000C2F3F1
S315000087F0400240EAC21008700120F0BD2DE9F04F9A
S3150000880085B00546DFF834930020CDE9010101F17A
S31500008810020489F8000069780646804605F10205DB
S31500008820DFF81CB3049101E115F8017BB9077DD58A
S315000088308EB3BBF80A8007F01100012807D04E4618
S3150000884069460E2001F023F902280ED013E069468E
S31500008850384601F01CF902280ED1B8F1010803D3FD
S3150000886099F800100029F2D016E1B8F1010802D3F8
S3150000887031780029E4D000260128F5D1009921702D
S315000088804FEA112262704FEA1142A2704FEA11615B
S31500008890E17004F10404F9064BD5E97855F8040BA8
S315000088A061F31F600390BBF80CA0F80712D0BBF869
S315000088B00A800021384601F0EAF8022802D0012891
S315000088C0D2D107E0B8F10108CED399F800100029FB
S315000088D0EFD0E1E0BBF80A806946384601F0D7F8E8
S315000088E0022802D0012816D107E0B8F1010812D3F8
S315000088F099F800100029EFD00DE0DBF81010009A6F
S315000089001140039A914206D0BAF1010A03D399F8AD
S3150000891000100029DED0DBF81010009A1140039AEF
S31500008920914201D040F01000012800E035E015D159
S3150000893031E0BBF80A80F90713D066BB4E4600212A
S31500008940384601F0A4F8022802D0012806D106E034
S31500008950B8F1010802D331780029F0D09CE0012655
S3150000896019E06946384601F092F8022802D001283B
S3150000897007D107E0B8F1010803D399F800100029E0
S31500008980EFD089E0009921700A0A62700A0CA27081
S31500008990090EE170241D002141E006B3BBF80A6010
S315000089A069460E2001F073F8022802D0012873D11F
S315000089B006E0761E70D399F800100029F0D06BE01F
S315000089C0009820704FEA102161704FEA1041A170A3
S315000089D04FEA1060E07004F104044FF00006E978F5
S315000089E055F8040B61F31F600090B90603D5CBF868
S315000089F01000012014E0BBF80A806946384601F0F1
S31500008A0046F8022802D0012846D107E0B8F101084D
S31500008A1042D399F800100029EFD03DE001218846A5
S31500008A200199491C019199F8001029B90499491E28
S31500008A300491491C7FF4F8AE01282DD1DEB1BBF8B4
S31500008A400A504E4669460E2001F021F8022802D04F
S31500008A50012821D105E06D1E1ED331780029F1D001
S31500008A601AE0009921700A0A62700A0CA270090EB7
S31500008A70E170241D10E0B8F1000F0DD0BBF80A50CC
S31500008A804E4600210E2001F002F8022804D16D1E88
S31500008A9002D331780029F4D0DDE901121170029970
S31500008AA04870029805B0201ABDE8F08F2DE9F84FFE
S31500008AB00025DFF88880064628468A46CF1C88F8B7
S31500008AC00050B6F80140F61C002C7CD016F8019B2D
S31500008AD0DFF86CB05FEA897164D55FEAC97142D08C
S31500008AE0BBF80A600021484600F0D1FF022802D0F8
S31500008AF0012868D137E0761E65D398F80010002962
S31500008B00F0D060E024B95FEAC97001D04FF00E09D9
S31500008B10BBF80A606946484600F0B9FF022811D042
S31500008B20012850D115E0000000F00F400408FE4374
S31500008B30C0C62D00006CDC0240420F0000E0FF1FA3
S31500008B4020E1FF1F761E3ED398F800100029E1D0E1
S31500008B5039E0009939700A0A7A700A0CBA70090E5F
S31500008B60F9703F1D6D1C641ECCD22CE0F17856F8CE
S31500008B70040B61F31F600090D148B0F80A80694683
S31500008B80484600F084FF022802D001281BD107E0E6
S31500008B90B8F1010817D39BF800100029EFD012E0B6
S31500008BA06D1C00E0C346641EE0D2C5485E4644899B
S31500008BB000210E2000F06BFF022804D1641E02D3B0
S31500008BC031780029F4D08AF800502A0A8AF8012060
S31500008BD08AF80200A7EB0A00BDE8F88FFF200870AC
S31500008BE001207047F8B50278A2F180031F2B02D846
S31500008BF000F07EF9F8BD01F8012B0C4610F801CB08
S31500008C000227FF2201260025AD49BCF1170F6ED2BF
S31500008C10DFE80CF00C3645499EA8B3D1C05E65D19D
S31500008C20D1D1D1D1696E8B95C3C3C3000178621CC3
S31500008C300020052921D008DC01291ED002291CD0DC
S31500008C4003291AD0042918D108E0062915D0F029DD
S31500008C5009D0FE290ED0FF290FD106E099480068F9
S31500008C601060042009E0167006E040201070557070
S31500008C70022002E00520107001202070801CF8BD43
S31500008C80017819B1012907D0227006E040788E4993
S31500008C9000F00100C04308602570012078E02146FD
S31500008CA000F0DCF874E089480D70466410214160DC
S31500008CB04764816C41F02001C0F8881084484168FF
S31500008CC041F0807141608349416000F040FB47E01C
S31500008CD0008800010090401E0090FCD140E06570C5
S31500008CE02570384654E02146FFF721FD50E062E04A
S31500008CF0C378006863F31F6028B1774A904204D3B3
S31500008D004E704E602CE022700DE0744A4D700244A5
S31500008D10B2FBF0F0022803D90322B0FBF2F000E028
S31500008D20012048601CE0304632E010F8012B0AB9F9
S31500008D304FF480720146104600F0BCFB10E000784C
S31500008D4000F00302521C0A75C0F38000487507E064
S31500008D5002780A72B0F801204A81B0F803008881CF
S31500008D602570E0E70978012903D025706570022097
S31500008D700EE02146FFF742FD0AE00978012904D0FA
S31500008D8025706570A570032002E02146FFF78EFE70
S31500008D90401CF8BD0978012902D022700220F8BDD6
S31500008DA00179D0F8010061F31F6000906946002048
S31500008DB000F06DFED4E704F8012C0120F8BD404810
S31500008DC00021017002214160642141810121017568
S31500008DD0AFF300804248816B41F4F0518163414A10
S31500008DE081155161394820231830C366C36F43F09B
S31500008DF02003C36791614023C366C36F43F04003FA
S31500008E00C367CB1CD361C26F22F08002C267304AAF
S31500008E1011600123C362C36B43F00103C363324B8A
S31500008E201961102140F8141C50F8043C43F010035B
S31500008E3040F8043C40F2231353600222C262C26B24
S31500008E4042F00202C263DA1E284B1A61C0F8B01063
S31500008E5050F8BC1F41F010010160704770B50478EE
S31500008E600D4604B9012400F085FA012C03D0002038
S31500008E702870012070BD124801212022017013487C
S31500008E800830C2674022C2670164102202600222D3
S31500008E90C263C36843F01003C360036843F0100362
S31500008EA00360036C43F001030364C263C26C42F0C7
S31500008EB00202C264064A40F2131050602970D8E7D5
S31500008EC020E1FF1F56E800001018FE4300F00F4097
S31500008ED000A0044013010A00001BB700FF356E0115
S31500008EE00080044000B004400090044000C00440EC
S31500008EF070B500780C46802803D0FF20087001204A
S31500008F0070BD01F0F1FF0646001D05F05FF9C5B220
S31500008F108020207065702A46311DA01C05F032F9AC
S31500008F20A81C70BD00240320DFF86CC300DFDB4EF5
S31500008F300325DFF86CC300DF0220DFF868C3F168A1
S31500008F4000DFB4FBF5F005FB1040641CE4B200281A
S31500008F50EFD10120DFF84CC3F16800DFE9E7CF4924
S31500008F6008B101208871C9680420DFF838C300DF22
S31500008F707047CA4901220A7008B1022000E00120A8
S31500008F80C8707047C54901224A7008B1022000E046
S31500008F90012008717047C14901228A7008B1022078
S31500008FA000E0012048717047BC480A214161012157
S31500008FB001727047B948DFF8ECC2C168082000DFCB
S31500008FC07047B648DFF8DCC2C168102000DF704782
S31500008FD0B248DFF8D0C2C168202000DF704790B0E9
S31500008FE002F05EFDC1B2402901D9402100E061B125
S31500008FF0684602F08BF910F0FF0106D0684602F0D1
S3150000900057FD10B10020FFF7BDFF02F040F9C1B2D5
S31500009010402901D9402101E00029E1D0684602F04B
S315000090208AFD10F0FF01DBD0684602F03AF900280D
S31500009030D6D00020FFF7A6FFD2E708B54FF0010A09
S315000090400020D146D046DFF860C2009000DF934F83
S31500009050F86001F0F7FF02F0E7FE00F040FD0120A6
S3150000906002F04CF8012002F054F8012002F052F808
S315000090700421F86802F051F8D346002002F0E0FE21
S3150000908000263E7201207E61F871022401F03BFF4A
S31500009090864A002344F20B61AFF27710DFF810C264
S315000090A000DF032002F039FC00F03EF900F04FF932
S315000090B000224FF6FF713F20DFF8F8C100DFDFF82E
S315000090C0F8C100DF0546000703D504243E720620DA
S315000090D0F87168071BD53E71002002F01AF8B879BE
S315000090E060B1002002F019FC01F0FEFE834605F097
S315000090F06DF80146584602F0DBFCBE71022002F014
S315000091000CFC0120387102F004F84FF0000BE80661
S3150000911011D500F02FF9042002F0FFFB002002F029
S315000091208FFE002001F0EAFF002001F0F2FF002090
S3150000913001F0F0FFFEE7A80604D500F01BF90420B5
S3150000914002F0EBFBE80752D0BBF1000F05D104217A
S31500009150F86801F0E2FF4FF0010B387A012805D1DB
S31500009160786910B1401E786100D13E72F8790728FF
S315000091703DD2DFE800F03C193C213C040B00387A74
S31500009180A8BB002002F05CFEFE7130E0387A70BBAE
S315000091900CB1641E2BD1002002F052FE0120F871A2
S315000091A001F0B1FE0A2422E00CB1641E1FD1012099
S315000091B002F046FE032019E002F051FEB8B1009815
S315000091C098B93A4A002340323C493D48DFF8E0C0AE
S315000091D000DF3C4A00234CF60101AFF2FD10DFF838
S315000091E0D0C000DF3861012000900220F871A80786
S315000091F07FF55EAF387890B1F878012801D0022863
S315000092000DD1BAF1000F02D04FF0000A04E04FF082
S31500009210010A012800D13E70504601F06FFFB87870
S3150000922090B17879012801D002280DD1B8F1000F4C
S3150000923002D04FF0000804E04FF00108012800D1E9
S31500009240BE70404601F066FF787800283FF430AFE4
S315000092503879012802D002287FF42AAFB9F1000F2D
S3150000926002D04FF0000904E04FF00109012800D1B7
S315000092707E70484601F04DFF1AE710B5FFF7D0F8AB
S31500009280104A4CF60A01C832AFF25120DFF838C056
S3150000929000DF002010BD000095E000000400002063
S315000092A0A5E0000095D30000CBDD000040010020C2
S315000092B047DE00005DD3000027D400000F900100B8
S315000092C02FA600001003002037DF0000FEE77047DE
S315000092D0FEE77047704770476D4C4FF6FF750022EA
S315000092E029460120DFF8ACC100DF69490C31081FAF
S315000092F000F082FD30B100F053F838B1A06800F0FC
S3150000930098FD03E00220DFF890C100DF002211463D
S315000093100220DFF880C100DF0128E6D05C48DFF8D4
S315000093207CC1103000DFDAE710B5594C0020014649
S31500009330207004F11000DFF868C100DF00231A4630
S3150000934002215848DFF860C100DF606010BD10B52B
S315000093504F4C207800280CD16068002809D00520E1
S3150000936002F0DBFA0120DFF844C1616800DF01206A
S31500009370207010BD10B5464C207800280FD06168CB
S3150000938000290CD00220DFF824C100DF4FF6FF7160
S3150000939004F11000DFF818C100DF0020207010BDB6
S315000093A038B53B484FF0FF31002482688160C168C0
S315000093B0B2F5817F16D006DC182A1FD0A2F580727E
S315000093C0013A21D109E0324D0835B2F5827F0ED03F
S315000093D0A2F58072053A17D10CE02D48083000F04E
S315000093E018F80FE00020FFF7BAFD002038BDFFF7A0
S315000093F0E8FD01E0FFF7ECFD2C6005E00846694654
S3150000940000F004F80028F1D0012038BD042200F055
S315000094103EBC2DE9FE430C46804600278DF80870B9
S3150000942069462046FFF7F2FF002812D001A9201D49
S31500009430FFF7ECFF00280CD001F056FD054604F0BE
S31500009440C5FE061F009818B10199701C814202D012
S315000094500120BDE8FE832D1D00240AE000980122AC
S31500009460411C0091294600F010F80028F1D06D1C2F
S31500009470641CB442F2D3012202A9009800F005F858
S315000094800028E6D0C8F80070E2E700F036BC00001D
S3150000949004E0FF1F5DD300008FE00000DDD900006F
S315000094A0D1D90000D992000047DE000095D3000014
S315000094B011DA0000F8B5FE4C00231A464FF0400CB6
S315000094C0FA4E202765681AE012B911F8013B082206
S315000094D0DC0702D0C6F884C001E0C6F888C0C6F82A
S315000094E088700095009C641E0094FBD1C6F88470B9
S315000094F00095009C641E0094FBD15B08521E401E22
S31500009500E2D2F8BD2DE9F043DFF8A8C30122CCF87A
S315000095101820E64E2027443677643764CCF81800C6
S31500009520776437644208CCF8182077643764831868
S315000095308208CCF81820776437641344C208CCF844
S315000095401820776437641A44CCF818207764376497
S315000095500022CCF81820776437640122CCF8182052
S3150000956077643764914646F84429DFF8448398F8CF
S315000095701420130005D0C6F88870C6F88470521EF1
S31500009580F9D184367760DCF81C2237607760DCF826
S315000095901C42376042EA44027760DCF81C4246F817
S315000095A0847942EA8402012A11D0022A62D0042A6E
S315000095B060D0213305D0C6F88870C6F884705B1E6B
S315000095C0F9D10120CCF81800D0B2BDE8F0838007AD
S315000095D026D500252B462020C6F88870DCF81C42CC
S315000095E0C6F884706D08234445EAC475401EF3D15D
S315000095F0C6F88870DCF81C02C6F884704340D807A9
S3150000960000D0082201B10D6098F8140028B1C6F800
S315000096108870C6F88470401EF9D1C6F848901BE0E1
S315000096202BB1C6F88870C6F884705B1EF8E7C6F8DA
S315000096304890002308682021CCF81800C6F88870E6
S31500009640C6F8847003444008491EF5D1CCF818309A
S31500009650C6F88870C6F8847098F808000028B0D05C
S315000096600021CCF81810C6F88870C6F88470401E21
S31500009670F9D1A6E798F8154044B1810706D521210E
S31500009680C6F88870C6F88470491EF9D133B1C6F899
S315000096908870C6F88470A3F10103F7E7C6F848900E
S315000096A0002C8ED080078CD40020CCF81800212006
S315000096B0C6F88870C6F88470401EF9D181E72DE996
S315000096C0F84F7C4E894600230121B161774F4FF058
S315000096D0200CC7F888C0764C61680091009A521E2B
S315000096E00092FBD1C7F884C00091009A521E0092E6
S315000096F0FBD1B061C7F888C00091009A521E009253
S31500009700FBD1C7F884C00091009A521E0092FBD18B
S315000097101D184308B361C7F888C00091009A521E0D
S315000097200092FBD1C7F884C00091009A521E0092A5
S31500009730FBD11D448308B361C7F888C00091009A25
S31500009740521E0092FBD1C7F884C00091009A521EA7
S315000097500092FBD1C2082B44B261C7F888C00091C1
S31500009760009D6D1E0095FBD1C7F884C00091009D39
S315000097706D1E0095FBD11A44B261C7F888C00091EE
S31500009780009A521E0092FBD1C7F884C00091009A3D
S31500009790521E0092FBD1B261C7F888C00091009AB0
S315000097A0521E0092FBD1C7F884C00091009A521E47
S315000097B00092FBD10122B261C7F888C00091009ADD
S315000097C0521E0092FBD1C7F884C00091009A521E27
S315000097D00092FBD14FF0010AC7F844A0237D1D007B
S315000097E00FD0C7F888C00091009A521E0092FBD194
S315000097F0C7F884C00091009A521E0092FBD15B1EEE
S31500009800EFD1C7F888C00091009A521E0092FBD192
S31500009810D6F81C22C7F884C00091009B5B1E0093FB
S31500009820FBD1C7F888C00091009B5B1E0093FBD15B
S31500009830D6F81C32C7F884C00091DDF80080B8F174
S315000098400108CDF80080F8D142EA4302C7F888C083
S315000098500091009B5B1E0093FBD1D6F81C32C7F823
S3150000986084C0A3460091009C641E0094FBD142EA8A
S315000098708303012B20D0022B7ED0042B7CD02135F4
S315000098800FD0C7F888C000910098401E0090FBD109
S31500009890C7F884C000910098401E0090FBD16D1E51
S315000098A0EFD10120B061D8B2BDE8F88F00F00F40CB
S315000098B020E1FF1F0010FE4380074DD500252C46F2
S315000098C02022C7F888C000910098401E0090FBD166
S315000098D0D6F81C02C7F884C00091DDF80080B8F104
S315000098E00108CDF80080F8D16D08044445EAC0753A
S315000098F0521EE6D1E0463A46C7F888C00091009865
S31500009900401E0090FBD1D6F81C02C2F8848000915C
S31500009910491E0091FCD14440E00700D00823B9F16C
S31500009920000F01D0C9F800509BF8141089B1DBF87C
S315000099300440C2F8888000940098401E0090FBD135
S31500009940C2F8848000940098401E0090FBD1491E06
S31500009950EFD1C2F848A03CE08DB1C7F888C00091AD
S315000099600098401E0090FBD1C7F884C00091009873
S31500009970401E0090FBD100E045E06D1EECE7C7F805
S3150000998048A00025D9F800002024B061C7F888C097
S315000099900091009A521E0092FBD1C7F884C0009134
S315000099A0009A521E0092FBD105444008641EECD179
S315000099B0B56162463C46C7F888C000910098401ED3
S315000099C00090FBD1C4F8842000910098401E0090BE
S315000099D0FBD19BF8081000293FF463AF0020B0616B
S315000099E0DBF80420C7F888C000920098401E00905B
S315000099F0FBD1C7F884C000920098401E0090FBD1AE
S31500009A00491EEFD14DE79BF81580B8F1000F12D033
S31500009A10820710D52124C7F888C00091009A521EEB
S31500009A200092FBD1C7F884C00091009A521E0092A2
S31500009A30FBD1641EEFD17DB1C7F888C00091009AB2
S31500009A40521E0092FBD1C7F884C00091009A521EA4
S31500009A500092FBD16D1EEEE7C7F848A0B8F1000FE3
S31500009A60D0D08007CED40020B0612122C7F888C0AC
S31500009A7000910098401E0090FBD1C7F884C0009169
S31500009A800098401E0090FBD1521EEFD109E7024A12
S31500009A90527802B136E512E620E1FF1FFE4820218A
S31500009AA0C1674021C16701210164102101600221C3
S31500009AB0C163C26842F01002C260026842F010023E
S31500009AC00260026C42F001020264C163C16C41F0A3
S31500009AD00201C164F14940F213104860704710B5A5
S31500009AE0FFF76DF9FFF7DAFF012010BD38B50C4618
S31500009AF000F00C00801C694600F013FB9DF8001076
S31500009B00DDF80120012841EA0221216000D0002071
S31500009B1038BD38B5082806D1E14A13688B4201D111
S31500009B20012038BD116000F00C040422684600F0E4
S31500009B30ECFA6946204600F0F4FA0128F1D000203C
S31500009B4038BD38B50D46044600F07F4100F0F00000
S31500009B5001430820FFF7DDFF002814D004F00C04B1
S31500009B60E41C6946204600F0DCFA6946204600F00F
S31500009B70D8FA9DF80010DDF80120012841EA0221FB
S31500009B80296000D0002038BD38B50D46044600F0E7
S31500009B907F4100F0F00001430820FFF7BAFF0028DC
S31500009BA005D034B9BE484168A94201D1012038BD6B
S31500009BB0456004F00C04641C04222946684600F043
S31500009BC0A4FA6946204600F0ACFA012805D10E2019
S31500009BD0002100F0A6FA0128E9D0002038BD1CB506
S31500009BE00C460146042201A800F08FFA052001A9BF
S31500009BF000F097FA012812D10F20694600F091FA79
S31500009C0001280CD10E20694600F08BFA9DF8001051
S31500009C10DDF80120012841EA0221216000D0002060
S31500009C201CBD38B50C4601460422684600F06DFAA4
S31500009C300520694600F075FA012810D10422214654
S31500009C40684600F062FA0D20694600F06AFA0128BB
S31500009C5005D10E20002100F064FA012800D0002072
S31500009C6038BD38B50D4604468E490020FFF78CFFF7
S31500009C7000280BD069462046FFF7B1FF002805D023
S31500009C80A007C10E0098C8402870012038BD2DE9F4
S31500009C90F04114460F46054608E039462846FFF7C8
S31500009CA0E0FF002827D06D1C7F1C641E14B3A80794
S31500009CB0F3D111E0C5F30900C0F58066B44201D2C4
S31500009CC024F0030632463946284600F065FA002895
S31500009CD011D035443744A41B032CEBD808E0394691
S31500009CE02846FFF7BEFF002805D06D1C7F1C641EAA
S31500009CF0002CF4D10120BDE8F0812DE9F041144695
S31500009D000D46064608E02978304600F099FA002804
S31500009D10F1D0761C6D1C641E14B3B007F3D111E0AC
S31500009D20C6F30900C0F58067BC4201D224F00307E0
S31500009D303A462946304600F003FA0028DBD03E4476
S31500009D403D44E41B032CEBD808E02978304600F0AC
S31500009D5077FA0028CFD0761C6D1C641E002CF4D137
S31500009D600120C8E773B50646002464254E480199CC
S31500009D7000F055FA002813D04B4846F48031001FF6
S31500009D8000F04DFA00280BD0474E083E01A9304698
S31500009D9000F034FA002803D00198C00301D5012051
S31500009DA07CBD641CAC42F1DB00207CBD2DE9F0419A
S31500009DB00E4601463C4800246425001F00F02FFA99
S31500009DC0002898D0384F083F3146384600F016FA3A
S31500009DD0002890D03068C00302D4641CAC42F3DB88
S31500009DE0AC4201D1002086E731462F4800F006FA42
S31500009DF0002880D001207EE738B505462A480C4663
S31500009E006946083800F0FAF9002803D00098800364
S31500009E1001D4002038BD29460020FFF7C7FF0028DF
S31500009E20F8D021460120FFF7C1FF0028F2D001201B
S31500009E3038BD08B501460020FFF794FF002814D06E
S31500009E4069460F20FFF7B2FF00280ED000990F20B9
S31500009E50891CFFF787FF002807D0134813490838E5
S31500009E6000F0DDF9002800D0012008BD70B592B0E1
S31500009E704FF08076DDE9164510968DE83C00426885
S31500009E80099282680D920068CDE90E01684600F0DD
S31500009E90ECF9002821D00BE008F00F4000A00440A8
S31500009EA01CE0FF1F50000023F8ED00E001005FA05A
S31500009EB0FF4E42F21075002411A9304600F09EF9BB
S31500009EC050B1119880030AD569460020FFF76EFF4E
S31500009ED0002802D0009830B1002012B070BD641C7A
S31500009EE0AC42E9D3F8E70120F7E71CB500F00AFA1F
S31500009EF000281BD09E208DF80000E7208DF8010079
S31500009F0069461020FFF7D6FA00F0FCF900280DD0BC
S31500009F1000208DF8000069460820FFF7CBFA01A95A
S31500009F200020FFF7E3FD012800D000201CBD38B556
S31500009F300020411E0090DF4801604160FEF73FFFB0
S31500009F40FFF7ACFD01F0E6FCFFF7CFFF00282DD0B0
S31500009F501E210020FFF7DDFD002827D00021082064
S31500009F60FFF7D7FD002821D04FF0A0410420FFF7CE
S31500009F70D0FD00281AD04FF0204469460420FFF790
S31500009F80B5FD002812D0009934EA0100F5D1CA497E
S31500009F900420FFF7BEFD002808D001F0C0FC002118
S31500009FA00820FFF7B6FD002800D0012038BDC349C0
S31500009FB008B1002000E001200860704738B5C04DA8
S31500009FC0BB4C062878D2DFE800F0033D0716787B05
S31500009FD00120FFF7ECFF94E00120FFF7E8FF0220E5
S31500009FE0DFF8E0C200DF0020FFF7E1FF0220DFF824
S31500009FF0D4C200DF85E00120FFF7D9FF0120DFF89A
S3150000A000C4C200DF0020FFF7D2FF0120DFF8B4C290
S3150000A01000DFFFF78CFF002874D02946204600F0A9
S3150000A020FEF800286ED00120FFF7C1FF0120DFF8FF
S3150000A03094C200DF0020FFF7BAFF0120DFF884C2D8
S3150000A04000DF5EE00120FFF7B2FF0220DFF874C2F6
S3150000A05000DF0020FFF7ABFF0220DFF868C200DF59
S3150000A060FFF765FF00284DD02946204600F0D7F8B7
S3150000A070002847D08E4D01210C35284600F0CFF838
S3150000A08000283FD00120FFF792FF0220DFF834C2FC
S3150000A09000DF0020FFF78BFF0220DFF828C200DF79
S3150000A0A06946204600F0AAF800282BD000988003C5
S3150000A0B0F6D50021284620E025E08149491E1BE00F
S3150000A0C0FEF77DFEFFF7EAFCFFF70FFF002819D029
S3150000A0D01E210020FFF71DFD002813D000210820B7
S3150000A0E0FFF717FD00280DD04FF0A0410420FFF721
S3150000A0F010FD002806D02946204600F090F80028DA
S3150000A10000D0012038BD002038BD10B5002305E081
S3150000A110DC0021FA04F4C4545B1CDBB29342F7D38F
S3150000A12010BD70B50D460646002429463046FFF799
S3150000A130AEFC022803D1641CE4B20A2CF5D370BD30
S3150000A140F8B50D4604462AB396085F490020FFF786
S3150000A1501BFD00281FD00527042221466846FFF76D
S3150000A160D4FF69463846FFF7DCFF012812D10D27D8
S3150000A170002407E029463846FFF7D3FF012809D116
S3150000A1802D1D641CB442F5D30E200021FFF7C9FF34
S3150000A190012800D00020F8BDF8B50D4604465AB394
S3150000A1A0960849490020FFF7EFFC002825D005272F
S3150000A1B0042221466846FFF7A8FF69463846FFF79E
S3150000A1C0B0FF012818D10F2729463846FFF7A9FF07
S3150000A1D0012811D1002407E029463846FFF7A1FFE0
S3150000A1E0012809D12D1D641CB442F5D30E2000218F
S3150000A1F0FFF797FF012800D00020F8BD70B50C4688
S3150000A200054631490020FFF7BFFC002806D021464D
S3150000A2102846FFF7E4FC002800D0012070BD70B589
S3150000A2200C46054628490020FFF7AEFC002806D05C
S3150000A23021462846FFF7F5FC002800D0012070BD16
S3150000A24070B50C4620490546891E0020FFF79CFC88
S3150000A250002809D0A807C00E04FA00F12846FFF727
S3150000A260E0FC002800D0012070BD38B5054600216D
S3150000A2700820FFF74EFC002841D00024204655F860
S3150000A2802410FFF76FFD002839D0641C042CF5D389
S3150000A2900920696AFFF766FD002830D00D242046A4
S3150000A2A055F82410FFF75EFD002828D0641C0DE049
S3150000A2B0F0ED00E01CE0FF1F000F00500408FE4315
S3150000A2C001005FA08FE0000052000023102CE6D3AF
S3150000A2D01020296CFFF746FD002810D011491248BE
S3150000A2E0FFF79DFF00280AD069460420FFF7FEFB12
S3150000A2F0002804D0009810F0A00F01D0002038BD2F
S3150000A300012038BD1CB500206A46FF211154401CAF
S3150000A310C0B20828FAD311463320FFF7CBF8012044
S3150000A3201CBD000001005FA0F0ED00E000207047BA
S3150000A33000207047002070470020704700207047BB
S3150000A34000207047002070470020704700207047AB
S3150000A350002070474FF6FF75002228462946DFF891
S3150000A360E0C000DFDFF8DCC000DF0446400701D5AF
S3150000A37001F029FC6006EFD502F057F901F099FCCF
S3150000A380EAE74FF6FF74002220462146DFF8B0C008
S3150000A39000DFDFF8B0C000DFC007F4D002F029F913
S3150000A3A0F1E7002902D0DFF8A0C000DF7047DFF830
S3150000A3B094C000DF70470022DFF884C000DF7047DA
S3150000A3C010B500F097F800F04EFCBDE8104001F023
S3150000A3D00BBB2DE9F0411D4C1D4F0025256038684B
S3150000A3E038B100231A4603211A48DFF86CC000DF93
S3150000A3F02060DFF85CE0194E00240EF1080E00BF65
S3150000A40046F824505EF8240038B100231A4602218B
S3150000A410DFF844C000DF46F82400641C0F2CEFD997
S3150000A4200F4C25607868002807D000231A460221C1
S3150000A4300C48DFF824C000DF2060BDE8F081000092
S3150000A4405DD3000027D4000095D3000004E1FF1F70
S3150000A450B8E8000055A3000047DE0000B4F4FF1F73
S3150000A460BC00002083A3000000F092BE00F0CEBE28
S3150000A47000F0B0BE1D4902680A6082790A7142790D
S3150000A4804A71007988710020C871084600F0CCBE78
S3150000A49010B50446154800F0F8FE002809D0134808
S3150000A4A0016821600179A17141796171807920711A
S3150000A4B0012010BD10B50D4CDFF834C0241F28B1A3
S3150000A4C000DF2060002001F028FA0AE000DF2168A2
S3150000A4D0401AB0F5967F01D3012000E00020FEF778
S3150000A4E03EFD002010BD012070470000380000200E
S3150000A4F089E0000057480021017041608160012217
S3150000A50042708170C1600161704770B515460128BF
S3150000A51022D10BB3012B1FD14E4C2069E168884232
S3150000A52001D1A078B0B14C482169402200EB8111DD
S3150000A530284603F027FE2069401C2061216900207F
S3150000A540052900D120612169E268914200D1A070FD
S3150000A550402070BD01206070002070BD70B51146AE
S3150000A56002281CD1002B1AD008780125072814D000
S3150000A570384C207818B16068A26890420FD03748EE
S3150000A580626800EB82101A4603F0FCFD6068401C0E
S3150000A59060606068052803D004E03148057070BD2E
S3150000A5A0002060606068A168884200D125700120A3
S3150000A5B0DFF8B0C0616900DF70BD70B50025264EBA
S3150000A5C0244C2CE0E068A26806EB8011234800EBDF
S3150000A5D08210FEF707FBA068401C0521B0FBF1F2D4
S3150000A5E001FB1200A060A0686168884200D1257056
S3150000A5F0607840B16570E068402206EB801100206B
S3150000A60002F0F8F80BE0E068401C052800D10020B5
S3150000A610E060E0682169884201D10120A070A0684D
S3150000A62061688842CED120780028CBD170BDDFF892
S3150000A63038C000DF07494FF6FF7448610022214603
S3150000A6400120DFF828C000DFFFF7B7FF0020FEF784
S3150000A65090FCF3E740000020E1060020A105002061
S3150000A66000E0FF1F95D30000CBDD00005DD30000A6
S3150000A6702DE9FC470024054616460B46204627468C
S3150000A680B5F5806F0FD10A5CFF2A09D1401C80B254
S3150000A6900C28F8D3887BFF2802D1D87BFF2802D06C
S3150000A6A00020BDE8FC8732464FF02020FFF725FB4F
S3150000A6B00028F6D0DFF80CA4DFF80C844FF40079FC
S3150000A6C0B44210D204F12020CDE900074B462A46B9
S3150000A6D051464046FFF7CAFB0028E2D004F5007455
S3150000A6E005F50075ECE70120DBE7F84900224A6131
S3150000A6F08A61CA6150B10A62487808B1072000E051
S3150000A7000820C8600A724A728A72CA620A634A627A
S3150000A710CA700A714A718A71EE4B8A62CA71EC4834
S3150000A7201860012008700A61704700273C46DFF870
S3150000A730A8C300DFE54E4FF4704870630022642121
S3150000A7404046DFF898C300DF022810D0002CF5D071
S3150000A750DFF88CC300DFC01B40F6B8318842EDD964
S3150000A76006200024B070204600F0AEFAE6E7DFF8D7
S3150000A77074C300DF0546C0040CD50120F0713220F9
S3150000A780DFF864C300DFF079012803D100F09CFAFA
S3150000A7900020F071A80404D5DFF844C300DF0746A3
S3150000A7A00124680400D500242804C7D5002CC5D090
S3150000A7B0DFF82CC300DF0746C0E7C44900208870D5
S3150000A7C000F082BA7CB5C948C04C0125007800B1BA
S3150000A7D06571216A01293BD0D0BB6079012839D047
S3150000A7E0FEF7C8FDC2482021C1674021C167056444
S3150000A7F0102101600221C163C26842F01002C260EA
S3150000A800026842F010020260026C42F00102026429
S3150000A810C163C16C41F00201C164B64940F2131034
S3150000A8204860012001F079F840F21C62B2494FF00D
S3150000A8300050FFF762FA98B10020A2490090034643
S3150000A84002460190BA39A048FFF710FB40B12562D5
S3150000A85000207CBD0320A070002000F035FA01E046
S3150000A860FFF7ABFF01207CBD2DE9FE4F0026DFF888
S3150000A8705C820746B146B24600960296072904D185
S3150000A88098F80100012804D00D2630464FF0010B40
S3150000A89007E00C26F9E707EB4011C97AC90672D41E
S3150000A8A0401C1028F7D3344635E007EB441502A9BF
S3150000A8B0284600F01DFA50B1012808D0022806D01B
S3150000A8C0032804D0042802D005285CD022E0E969D8
S3150000A8D04346C8F81410E9B16A8B6FF0060C0CEB0E
S3150000A8E0C20201F2FF11490A1A63996129785F29A8
S3150000A8F007D02E2905D0E52920D103281ED001280E
S3150000A9001CD0D868904201D14FF00109C3F814A0B9
S3150000A910C8F818A0641C102CC7D3B9F1000F09D0D1
S3150000A920D8F81820D8F80C1000201144C8F80C10DC
S3150000A930FFF7DBFE0098012851D047E0587A01283E
S3150000A9400BD1997A49B9996A4046914205D30421B7
S3150000A9508170002000F0B8F938E0986A98B3904208
S3150000A96038D2111AD869421A9869824232D34E02F5
S3150000A97083F800A0C1074FEA500500D06D1C0024E3
S3150000A9804FF480681BE02CE006EB842042465049D9
S3150000A990FFF77DF9C0B14B49A702CDF800A000230F
S3150000A9A03A461E394848CDF804A0FFF75FFA58B179
S3150000A9B0384642464649FFF75BFE28B1641CAC4266
S3150000A9C0E2D30120C6E705E0FFF7F7FE4FF0FF30C0
S3150000A9D0BDE8FE8F83F808B0029826461861304617
S3150000A9E0F6E788F802B0B4E72DE9F041044643489B
S3150000A9F00D46007802283CD1344E3078002838D0F5
S3150000AA003F480068002834D00020FEF7C4FA4FF40F
S3150000AA100071284603F0CFFB06F19007092C32D8C7
S3150000AA2006F1380000EBC4014A6850F83410284695
S3150000AA3003F0A8FB012C1ED0072C1AD17078002831
S3150000AA4017D106F1380000F13804C06B1E492844BE
S3150000AA502022203103F096FBB07857F8200003F04F
S3150000AA60B5FB626805F11C015054062061681A3571
S3150000AA704855BDE8F08170780028FAD1FF20687249
S3150000AA800F20A872F5E7112C13D0192C15D0212C04
S3150000AA9038D0292CEDD1B07857F8200003F096FB7A
S3150000AAA00246B07857F820102846BDE8F04103F07A
S3150000AAB069BB0549A0224031F6E703495022E0313F
S3150000AAC0F2E70000DA00002084F000002CE0FF1F0F
S3150000AAD02808002010010020CBDD00005DD3000017
S3150000AAE089E0000027D400008FE0000020E1FF1F6E
S3150000AAF008F00F4000A0044050EA00000B000020C0
S3150000AB00F8000020BDE8F04100F0FDB92DE9F04164
S3150000AB100446B2480A4600780228AAD1B04E3078D8
S3150000AB200028A6D00125072C01D0082C1CD1E1B2A3
S3150000AB301046FFF799FE401C16D0F07810B1012898
S3150000AB4002D011E035710FE0D6E90610884202D135
S3150000AB50326A012A0FD0336BB26A9A4204D1884214
S3150000AB6002D9306A012878D0292C82D3FEF71CFA44
S3150000AB70307958B10BE0F07900280ED1F571716B80
S3150000AB80BDE8F0414FF4805002F03CBCF570F06A2D
S3150000AB9020B1401CA04201D0B5726AE7B07918B95D
S3150000ABA0F068844200D9F460FFF70CFE0128F4D067
S3150000ABB0306A0128F1D1FEF7EEF9B07A002750B1DC
S3150000ABC0F068844207D1306918B900F06FF80028A0
S3150000ABD0E3D0B7727772F068A042DED8B17951B986
S3150000ABE0A0420CD1B5714FF40050716B02F00AFC13
S3150000ABF0B462B07918B1B079012805D00FE0F068D9
S3150000AC00A0420CD0052026E0B07A40B9B06AA04236
S3150000AC1005D0F1690844A04201D002201BE0F0797A
S3150000AC20012800D1F771B07950B1F068844207D19C
S3150000AC30306918B900F03AF80028AED0B7727772CA
S3150000AC40F462F069401CF06100F09EF80128A4D17E
S3150000AC50307A30B10420B0700020BDE8F04100F039
S3150000AC6033B8757205E75E4810B5C17A012449B953
S3150000AC705C4AC47200234CF60501AFF25150DFF86E
S3150000AC8068C100DF59494FF48C20086058494FF4D9
S3150000AC90007008605748584904604FF40C7008600B
S3150000ACA05749564808605748046010BD1CB5002037
S3150000ACB0009003460246019053495448FFF7D6F8E0
S3150000ACC0002800D001201CBD10B5454C6070002046
S3150000ACD0FEF761F90120FFF708FD4FF48040616B34
S3150000ACE002F090FBFEF766F9BDE81040FEF72FBBB9
S3150000ACF0F0B5067A437A827A05780020444F14E04C
S3150000AD0007EBC00494F801C0B4450DD194F802C015
S3150000AD109C4509D1E478944206D107EBC0025268FB
S3150000AD200A6017F83000F0BD401C17F83040052CBB
S3150000AD30E6D1A6F161040020192C02D9413E192E54
S3150000AD401FD8A3F16104192C04D92034192C01D978
S3150000AD50202B16D1A2F16103192B04D92033192B0C
S3150000AD6001D9202A0DD1A5F16102192A02D9203272
S3150000AD70192A06D82E2D04D05F2D02D00860052092
S3150000AD80F0BD08600620F0BD10B5154C606AB0F540
S3150000AD90802F06D3800304D14FF40040616B02F08C
S3150000ADA031FB2169606A4FF4007208441349FFF7CA
S3150000ADB05FFC38B1D4E90601814209D10120FFF7D1
S3150000ADC083FF09E0606A00F500706062012010BD33
S3150000ADD0606A00F500706062002010BD0B00002064
S3150000ADE02CE0FF1F280C002047DE00002801002071
S3150000ADF004010020080100200C0100202808002082
S3150000AE0010010020F80000208800002084F00000D7
S3150000AE10B4F10000F0B5064600200346054617E0EB
S3150000AE203478A4F13007092F01D830230AE0A4F1C1
S3150000AE304107052F01D8372304E0A4F16107052F48
S3150000AE4000D8572300FB0240C01A761C6D1CEDB2D9
S3150000AE508D42E5D3F0BD2DE9F041744E2420042443
S3150000AE6030707070B0701820F070714900200A5C64
S3150000AE703255641C401CC0B2E4B20428F7D36D4FAF
S3150000AE80002079680A5C3255641C401CC0B2E4B2EA
S3150000AE900428F7D3002504EB450081194A1CC5F1A7
S3150000AEA00300C300F868D840C0B200F069F86D1C12
S3150000AEB0EDB2042DEFD30834E5B2002405EB4400CF
S3150000AEC081194A1CC4F10300C3003869D840C0B2D6
S3150000AED000F056F8641CE4B2042CEFD30835E8B24F
S3150000AEE000213154BDE8F081504870474F4810B5F5
S3150000AEF0001D03F06BF9022101EB4000C0B210BD4A
S3150000AF004A481D3070477CB54A4D0024287810BB4E
S3150000AF1005F10C0000F030F9102204214448FFF737
S3150000AF2079FF0646102204216868FFF773FFE96877
S3150000AF3046EA0040484028613D4810220821001D8D
S3150000AF40FFF768FF296941402961FFF784FF00F098
S3150000AF5022F80120287038480021384D8DF8041059
S3150000AF600090684600F03EF810B12855641CF8E7DA
S3150000AF70C4F500712819202203F016F901207CBDC2
S3150000AF8010B52F4B03EB101400F00F0024780C7053
S3150000AF90185C107010BD2DE9F041244C201D03F003
S3150000AFA015F9C3B2022004F11D0500EB4300287019
S3150000AFB00320022268700021084605E0CE070BD068
S3150000AFC05618A855491CC9B2B1EB430FF6D302EB8C
S3150000AFD04301C9B2685485E704EB51065718367920
S3150000AFE0EE55EFE7F0B5114B01261B1D114C002560
S3150000AFF0017919B1A168097879B905710268511CFE
S3150000B00001601278402A0CD10F78412F09D1A36034
S3150000B0100671491C0160197829B1A06810F8012B46
S3150000B020A0601046F0BD0571E2E7000063F4FF1F63
S3150000B03058000020D8E0FF1FD6F5000028080020A1
S3150000B040F6F6000070B54448816B41F48051816387
S3150000B050424A81151161424910230B604B618B688E
S3150000B06043F010038B60816B41F4805181634FF490
S3150000B07088619161C16B41F08071C163394C606D2B
S3150000B08040F004006065606D20F001006065D4F852
S3150000B090800020F00100C4F88000606E20F080601F
S3150000B0A06066606E20F080706066206820F0200088
S3150000B0B02060E06B40F02000E063E06B40F00800A9
S3150000B0C0E063E06B20F00400E0630025656026483D
S3150000B0D0006803F08EF86FF00E0103F07EF803F0BF
S3150000B0E08DF8A060E56400EBD07040102064082065
S3150000B0F02060606D20F00400606570BD1849C0399D
S3150000B10008B1C83100E0C431086840F0100008609A
S3150000B1107047F3E7F2E7002070470F48816B41F470
S3150000B120805181631148416841F080714160104946
S3150000B130416041150F48C0F8FC11C16770470B48C4
S3150000B140D0F8A010022906D1416841F08071416013
S3150000B15040F21311416070470080044000C0044073
S3150000B160C0F00F40008003400000002000A0044013
S3150000B17013010A0088E000E004490A6ECB6D5A40CC
S3150000B1808B6D496D4B405A40026070470080044009
S3150000B19010B5122000F049F9AA48816B41F400610C
S3150000B1A08163416B41F400614163A7484FF44071EC
S3150000B1B0C1600161A548DD210174C17841F00C012F
S3150000B1C0C170C17841F02001C170122000F021F950
S3150000B1D0012010BD10B5122000F027F99C4800226E
S3150000B1E01146026042609B48491C482900F8012B21
S3150000B1F0FAD3984848300021491C00F8012B482909
S3150000B200FAD3122000F005F9012010BD8F4810B5C1
S3150000B210C17821F00C01C170C17821F06001C170C4
S3150000B220FFF7D8FF012010BD70B50546002426465D
S3150000B230122000F0FAF8FFF7CDFF68790021012807
S3150000B24002D0022803D004E00124264600E00124AF
S3150000B250012108017D4940EA4400304388707E4A56
S3150000B260286812680001B2FBF0F0794A10600A788B
S3150000B270C0F3042322F01F021A430A704A7848706A
S3150000B280122000F0C6F8012070BD012070477148F9
S3150000B2904430B0F90010B0F90200081AC0F14000BD
S3150000B2A0704770B504464FF0000000292DD0694A5A
S3150000B2B019E0B2F84430B2F846505B1B1BB2402B83
S3150000B2C011DA14F8015BB2F84030D6185B1C22F88C
S3150000B2D0403F3570138803F03F03138093885B1C4F
S3150000B2E09380403A401C0B00A1F1010189B2E0D1E4
S3150000B2F05649CA7842F04002CA7055494968002941
S3150000B30003D156494FF480220A6070BD30B5044619
S3150000B3104FF00000002920D04E4A02F1480217E003
S3150000B320B2F94430B2F94650AB4211D0B2F84230CD
S3150000B330D5185B1C22F8423F2B7804F8013B138892
S3150000B34003F03F03138093885B1C9380423A401CB2
S3150000B3500B00A1F1010189B2E2D130BD30B53B4B02
S3150000B3601A793C48B0F94410B0F94650384CA94215
S3150000B37017D051061DD5B0F8421000EB010501F1BA
S3150000B380010120F8421F2978D971018801F03F0197
S3150000B3900180818801F1010181804FF00100606028
S3150000B3A007E0606828B100206060D87820F040008F
S3150000B3B0D8702848910600F1480026D430BD4030A8
S3150000B3C08188C288DC79891A0AB230F84019451892
S3150000B3D0491C20F8401F2C70018801F03F010180B4
S3150000B3E08188491C81804038402A0ED130F8421F9E
S3150000B3F001F101010180018801F03F01018081888E
S3150000B40001F101018180A0F14200997C4906D6D55F
S3150000B41030BD00F01F020121914040094FF0E022AB
S3150000B42002EB8000C0F80011704700F01F020121F6
S3150000B430914040094FF0E02202EB8000C0F88011F5
S3150000B440704700000080044000B0044000B0064091
S3150000B450ECE0FF1FF00C00200000002000E200E0FE
S3150000B460FE49082008607047FD4908200870FD481D
S3150000B470416841F4A0214160816C21F00F01816493
S3150000B48000218164416B41F48021416301DFF6486C
S3150000B49090F80C1141F0800180F80C1190F80C1115
S3150000B4A00906FBD4F149090A00F89C1FEF49090C6B
S3150000B4B00175EE49090E0176FF2100F81C1CEC49C6
S3150000B4C09C38096811B10421022201E000210A46D4
S3150000B4D01143ED3041F0190100F8691C4021C17497
S3150000B4E0C17F41F04001C1777047E24900280878E2
S3150000B4F006D040F001000870102081F874007047F3
S3150000B50020F0010001F8740B087820F01000087094
S3150000B51070470120D449002201EB800383F8C02044
S3150000B520401C1028F8D3D1480823438000F1A0031B
S3150000B5304360C8230370027200F590734361C261D1
S3150000B5400D20803181F84000C54B4FF05530083B47
S3150000B5501860087D40F002000875FF200870087228
S3150000B56008730A767047C3481038017841F0200105
S3150000B57001707047BF481038017821F02001017032
S3150000B5807047BD494CF25030097889070ED5B94A43
S3150000B590117841F0040102F8941900E000BF401E42
S3150000B5A0FCD212F8940F20F0040010707047704718
S3150000B5B0002904D1AF4900F07F00091D08707047CB
S3150000B5C07047F0B5A64BA94DA3F10803A74E1A681C
S3150000B5D05FEA006C4FF000044FF0010705F1A0058B
S3150000B5E000F00F010CD507EB41008740174306EB2F
S3150000B5F0411005EB01221F608032C4614261F0BD3B
S3150000B6004FEA400C07FA0CF7BA431A60944A125CE8
S3150000B61006EB411005EB0121428041608821017053
S3150000B6200472F0BD014680788988020601D48C4AEE
S3150000B6301154C6E770478C49020608D500F00F0082
S3150000B64001EB800010F8C01F41F0050105E001EB99
S3150000B650800010F8C01F41F009010170704782494F
S3150000B660020608D500F00F0001EB800010F8C01F9D
S3150000B67021F0050105E001EB800010F8C01F21F064
S3150000B680090101707047784900F00F0001EB800056
S3150000B69010F8C01F41F0020101707047724900F0B6
S3150000B6A00F0201EB820111F8C02F22F002020A708C
S3150000B6B087E77047F0B505004FEA0070DFF8ACC1C8
S3150000B6C04FEA90630CEBC30E4FF00006BEF8020083
S3150000B6D006D11CF83320C2F383020D2A00D10126BD
S3150000B6E0624C0022A03404EB831702E0BC5C8C544D
S3150000B6F0521C8242FAD35A4A525DAEF80220584D85
S3150000B7005A08083D1CF833E02C68CEF3801E24FA54
S3150000B71002F707F00107774501D0296806E00EB168
S3150000B720897941B10121914061402960D140C90721
S3150000B73004D0C82103E024F00101F6E788210CF8C3
S3150000B74033104C490A7822F020020A70F0BD70B519
S3150000B75000F00F000223454D03EB800405EBC40007
S3150000B7600023428005F1A00000EB841002E0CE5CCD
S3150000B770C6545B1C9342FAD3394E6108083E3068C2
S3150000B78020FA01F3DB0701D0882300E0C82305F87F
S3150000B790343001238B4043401046336070BD354939
S3150000B7A00C310878097940F2FF7202EA0121084358
S3150000B7B070472B480838406870472DE9F0412D4DF9
S3150000B7C0143D2C782879803D0440294FE0070BD0A2
S3150000B7D0FFF79FFE00F036FB396811B1042001F037
S3150000B7E011FE012085F88000E00609D5FFF7BBFEB3
S3150000B7F0396811B1102001F005FE302085F880006F
S3150000B800A00609D5FFF7B6FE396811B1202001F070
S3150000B810F9FD202085F88000600707D5396811B149
S3150000B820402001F0EFFD042085F880000C4E083E14
S3150000B830022C0DD195F888007060396811B180200E
S3150000B84001F0E0FDFF2085F88800022085F88000E1
S3150000B850200758D5A84605F190000FE004E100E066
S3150000B860FCE0FF1F0080044000200740000E00207F
S3150000B87004E1FF1F94200740AE00002001780C0968
S3150000B88001780078C1F3C001204F214DC0F380003C
S3150000B89009D1002202EB4102024417F83220C2F31A
S3150000B8A083020D2A0AD0A20002EB41010E1817F8F6
S3150000B8B03600C0F38300012810D015E0306820F070
S3150000B8C002003060387E20F080003876387C20F028
S3150000B8D080003874296899B102200FE055F82410C9
S3150000B8E011B1042001F08EFD17F83600C0F3830075
S3150000B8F0092805D155F8241011B1082001F082FD60
S3150000B900082188F88010BDE8F0810000000E0020B4
S3150000B910B4F4FF1F0120FEF74ABBFEF74FBB38B554
S3150000B92069462348FEF70DF9002805D00098A0F5D2
S3150000B930E011203901D0002038BD1D4C6946F83C85
S3150000B9402046FEF7FEF80028F6D0A50569462846EB
S3150000B950FEF7F7F80028EFD00098400726D500201C
S3150000B960FEF72CFB01212046FEF70EF90028E3D056
S3150000B97069462846FEF7E5F80028DDD00098C0079E
S3150000B980F0D000212046FEF7FFF80028D4D0694603
S3150000B9902846FEF7D6F80028CED069462046FEF7A0
S3150000B9A0D0F80028C8D000980028EAD1012038BD78
S3150000B9B0FC000001002070470020704700207047FF
S3150000B9C00020704700207047002070470020704715
S3150000B9D00020704700207047002070470020704705
S3150000B9E0002070470020704710B5FEF73DFD10BDE2
S3150000B9F010B5FEF73BFD10BD10B5FD480024FD490E
S3150000BA0044608460C4600461C0E90541C0E907146C
S3150000BA104462F9498462C0E90B4141630480FEF740
S3150000BA2027FDF3484FF41651383001600471447114
S3150000BA3008218171FEF71EFD10BDF04810B5C178D2
S3150000BA40026861F31F62EA4938310A6002790A71B5
S3150000BA5042794A71807988710846FEF70BFD10BD60
S3150000BA60E34810B53830FEF713FD002811D0E04A40
S3150000BA70E2483832116801700B0A43700B0C837070
S3150000BA80090EC170117901715179417191798171F4
S3150000BA90012010BDD64910B50880FEF724FD10BD63
S3150000BAA0D348D0E90410081AD5490988081A7047FE
S3150000BAB02DE9F041CE4F0C460646D7E90401401A5F
S3150000BAC0CF490A88101A002802DC0020BDE8F08160
S3150000BAD0844200DD0446D7E906020025904210D3D1
S3150000BAE0C44B0988021919448A420AD90D1A984684
S3150000BAF02A46314602F046FB2E44641B4046C7F8F0
S3150000BB00188034B12246314602F03CFBB869204425
S3150000BB10B8613969601901443961D7E701B5012176
S3150000BB206846FFF7C5FF012802D04FF0FF3008BD79
S3150000BB309DF8000008BD70B5AD4D0C460346D5E92D
S3150000BB400C0188420BD9401A844200DD0446224685
S3150000BB50184602F017FB686B2044686300E0002477
S3150000BB60204670BD08B501216846FFF7E4FF0128AD
S3150000BB7002D04FF0FF3008BD9DF8000008BD9C487C
S3150000BB80D0E90C10081A70479E4910B50978C1B162
S3150000BB909D49A12202230A7020224A7000228A703F
S3150000BBA0CA700A714A718B71CA710872000A4872AA
S3150000BBB096480A22007840F08000FFF7C8FD012071
S3150000BBC010BD002010BD10B5FFF716FF10BD2DE902
S3150000BBD0F047874EB06800283CD0D6E90401441AE5
S3150000BBE0F0684FF0000A204336D08548814FD6E9E9
S3150000BBF006210388FD18914202D898B2844203D1E7
S3150000BC000819A84200D96C1ADFF80892DFF80082FA
S3150000BC1099F8002038F81200A04200DA04467E485F
S3150000BC202246007840F08000FFF791FDF06920443D
S3150000BC30F061716985422144716100D1F761306913
S3150000BC4088420CD199F8001038F81100A04206D1AC
S3150000BC500120F060BDE8F087C6F808A0FAE7C6F84C
S3150000BC600CA0F7E710B5624C6C4A6348216B12884A
S3150000BC70684B081A101A664A1B7832F8132090424D
S3150000BC800EDB67480078FFF715FD216B084420633B
S3150000BC90A06A00280CD0616A002909D1401E06E07E
S3150000BCA00120E062606A002802D0A06A401CA062FF
S3150000BCB010BD70B54E4C00250126206A50B9D4E956
S3150000BCC00C01884206D14C49884203D02163E562C3
S3150000BCD025626163A06A70B1206A60B9E06A50B9F2
S3150000BCE02662FFF7BFFF2562D4E90C01884202D025
S3150000BCF0401AFFF76BFED4E90101084308D1D4E9E5
S3150000BD000401884204D06660A660FFF760FF6560A4
S3150000BD1070BD704710B5364C206A18B1A06A401C39
S3150000BD20A06210BD012020626062FFF79BFF002029
S3150000BD3060622062D4E90C018842F2D0401AFFF713
S3150000BD4045FE10BD10B52A4C6068002805D10120BB
S3150000BD506060FFF73CFF0020606010BD10B5044630
S3150000BD60400702D52046FFF7D5FF200703D520461A
S3150000BD70BDE81040E6E710BD2A48006840B14FF61E
S3150000BD80FF7420462146FEF716FBFEF710FBF8E788
S3150000BD902448006868B14FF6FF7420462146FEF736
S3150000BDA00AFBFEF704FB0007F7D50020FFF7CAFFE2
S3150000BDB0F3E71C48006868B14FF6FF742046214639
S3150000BDC0FEF7F9FAFEF7F3FA4007F7D50020FFF77A
S3150000BDD0A1FFF3E71348006830B34FF6FF7420461F
S3150000BDE02146FEF7E8FAFEF7E2FAFFF7B7FFF6E7B5
S3150000BDF068000020D9F3FF1F210500202400002041
S3150000BE00A0E80000A900002059F4FF1F9CE80000EC
S3150000BE10A4E80000AB0000209DE80000A2E80000B6
S3150000BE209EE80000B4E80000B24910B50020C870D2
S3150000BE30FEF7C6FAFEF7CDFABDE81040FFF714BBD1
S3150000BE40FFF753BBAC484FF001120178A948C180F7
S3150000BE50002101704170C0E9022101617047A548C7
S3150000BE604078002800D001207047A24920310020E8
S3150000BE70FFF720BC10B59F4CA0481834A288017863
S3150000BE808A4200D9CAB212B99A49002008718020A4
S3150000BE902168FFF75CFC216801442160A188081A2B
S3150000BEA0A08010BD10B5934C002018342168FFF710
S3150000BEB001FC216801442160A188081AA08010BDF8
S3150000BEC0002211468020FFF742BC8D490020FFF773
S3150000BED0F1BB2DE9F047DFF81C82044608F1200883
S3150000BEE0844D80074FF0000AA8F1080624D5FFF715
S3150000BEF0BCFF98F800004746C009FFF79BFBF8888F
S3150000BF00B0803878C0F3411111B101295AD17CE0D3
S3150000BF1098F801207B4FDFF8F0910C2A52D2DFE827
S3150000BF2002F0060C821C822A3A823E44526102F0DA
S3150000BF309DFA32E0FFF79EFF83E0002002F0D4FA7C
S3150000BF40002870D0FFF7BCFF386820B16969002966
S3150000BF5077D0082050E0484652E0012002F0C4FAAB
S3150000BF6080B3FFF7ADFF38680028F4D0696900296F
S3150000BF7067D0042040E010F01F0F54D198F802005B
S3150000BF80012140F08000287000F07F00FFF710FBD1
S3150000BF90FFF796FF55E002F0C5F998B1CAE710F031
S3150000BFA01F0F40D15348401C1AE002F0EDFA48B189
S3150000BFB0FFF786FF386818B16969F9B101201BE0FF
S3150000BFC052481DE02FE000F01F0001282BD16878B1
S3150000BFD048B398F80400A978884224D24C4908440A
S3150000BFE03060A7E702F094FBE8B1FFF769FF386815
S3150000BFF028B1696911B10220FEF7D3F921E045485D
S3150000C0000168F1B1084680471BE010F01F000AD016
S3150000C010012808D100F020F998B900F095F980B907
S3150000C02000F07AF868B998F80010090604D4B8F850
S3150000C030060008B1002000E08020FFF724FBA6F8E8
S3150000C04004A0600723D598F80000474600061CD4D4
S3150000C050B088E0B1FFF726FFB088C0B93878C0F3E2
S3150000C060411161B101290AD110F01F0007D0012842
S3150000C07005D100F038F950B900F093F838B98020AE
S3150000C080FFF701FBA6F804A001E0FFF71EFF20075B
S3150000C09013D598F80000000606D5B088297908431C
S3150000C0A00BD0FFF7E7FE08E02878010605D500F07B
S3150000C0B07F0028700021FFF77BFA600602D500207A
S3150000C0C0FFF7ECFA200604D5BDE8F0478020FFF71D
S3150000C0D0E5BABDE8F0870B48006850B14FF6FF742B
S3150000C0E020462146FEF767F9FEF761F9FFF7F1FEF4
S3150000C0F0F6E70000A80000207CE8000080E80000C9
S3150000C10024000020B4E80000B0E80000A8E8000021
S3150000C11020000020ACE8000070B53349334A0879A6
S3150000C1201278904203D0324A1278904237D12E4884
S3150000C1304978304C304D408804291FD007DC79B14E
S3150000C14001290FD002290BD0032928D111E020297B
S3150000C15006D0212919D022291AD023291FD11AE065
S3150000C1602C6010E0FFF736FC05E02C60FFF782FE3E
S3150000C17009E0FFF733FC0028F7D110E0FFF730FCA9
S3150000C1800BE0FFF79DFE012070BDFFF769FCF2E7AB
S3150000C190FFF780FC01E0FEF78DF90028F1D10020C1
S3150000C1A070BD10B51049114A08791278904203D033
S3150000C1B00F4A1278904214D1487820B1022805D04F
S3150000C1C020280ED10AE0FFF703FC02E04888FFF7BB
S3150000C1D003FC30B1FFF774FE012010BDFFF72DFC04
S3150000C1E0F7E7002010BD0000C80000209AE8000014
S3150000C1F09BE8000024000020C000002030B5434A20
S3150000C200424B434CD278434D1B79212A02D0222A35
S3150000C21020D115E0227893421CD13F4A13783F4A39
S3150000C22012780BB9012A15D042B13D4A0260104678
S3150000C2303C4A128810442860092008E03A4AF5E78B
S3150000C2402078834206D1394828603948008808603A
S3150000C250012030BD002030BD2DE9F0412B4E2C4988
S3150000C2603079097888423CD170782A4C314D324F6A
S3150000C2700C2836D2DFE800F03506212C3535353569
S3150000C2803516243100F095F858B3F078012802D01D
S3150000C290032803D003E02948206000E02560FFF76B
S3150000C2A0E9FD12E0F078022802D0032803D00CE062
S3150000C2B02348206009E0256007E000F0AAF809E0BD
S3150000C2C000F0AFF80BE0FFF7FBFD0120BDE8F081C1
S3150000C2D000F0BDF828B12760E1E700F0BFF80028BC
S3150000C2E0F1D10020F2E710B50848094A0179127821
S3150000C2F0914209D14078092806D100F071F818B1A9
S3150000C300FFF7DEFD012010BD002010BDC800002093
S3150000C31081E80000C00000207DE80000AB0000209E
S3150000C320B5E9000024E900003AE9000000E9000050
S3150000C33022E900003100002024000020A104002092
S3150000C34099F3FF1F00F0B7BA10B51248124A0179E7
S3150000C350127891421BD142784188C088FE2A09D0C2
S3150000C360FF2A14D199B990B900F0C7FA78B1FFF74E
S3150000C370A7FD0AE059B9012809D100F0C7FA30B182
S3150000C380074906480860FFF775FD012010BD00202B
S3150000C39010BD0000C800002092E800002400002024
S3150000C3A0C00000207047002070477047002070478B
S3150000C3B07047FB4910B5C8780022012804D002282E
S3150000C3C004D0032806D103E0F64A02E0002010BD9F
S3150000C3D0F54A521C89780023FEF797F8012010BD14
S3150000C3E0EF4908B5C8780022012804D0022804D0F5
S3150000C3F0032806D103E0002008BDEC4A00E0EA4A23
S3150000C400521C00230093CB888978FEF7A7F80120F9
S3150000C41008BDE348E6498078085CE64908700120D3
S3150000C420704710B5DE48DE498078C97818B1E04A11
S3150000C430521E815409E00020DD4ADF4B02E0115410
S3150000C440401CC0B21C78A042F9D3012010BD10B523
S3150000C450FFF7ACFFD7490870012010BDD04810B5D2
S3150000C4608078FFF7A5FF012010BD2DE9F047D34ED8
S3150000C470B0887188CB4FDFF840837D1C002488424A
S3150000C48016D3B069A0B97461B480012339787A1CD7
S3150000C4901846FEF73AF87080708848B1776198F8C8
S3150000C4A00000012801D8756102E07088401C708088
S3150000C4B070884FF00109B0BBF06808B1F46032E053
S3150000C4C0316981B398F8000001280DD83C70B4801A
S3150000C4D002237A1C00210120FEF717F8708070886D
S3150000C4E000B1756134611EE03D78C846202D00D349
S3150000C4F0002508FA05F0084244D0681CC1B239701C
S3150000C500B48002237A1C0120FDF7FFFF708070883B
S3150000C51018B177617088401C7080306908FA05F898
S3150000C52020EA080030617088B169084328D0708815
S3150000C530B188DFF89082401A85B2A14F98F80000C2
S3150000C54037F81000A84200D205469F482A4671696E
S3150000C550007840F08000FFF7FAF870699B4928449C
S3150000C5607061B088284480B2B080098888420CD2B5
S3150000C57098F8000037F81000A84206D1C6F81890BF
S3150000C580BDE8F0876D1CEDB2B0E7B461F8E7F8B529
S3150000C5908A4C864D0026E08800B9E5618C48E16941
S3150000C5A00078FFF787F80004E169000C0144E161B7
S3150000C5B0E18801448BB2E3800AD0864909888B4220
S3150000C5C006D2804A7E49127831F8121081420FD97C
S3150000C5D08148017801200129009002D8734A002180
S3150000C5E002E029785B1E6A1C0220FDF7B7FFE68091
S3150000C5F0F8BD724800214170C1600161416141800E
S3150000C60081808161C161C18001620181704710B57D
S3150000C6100446000702D52046FFF727FF600703D52B
S3150000C6202046BDE81040B2E710BD2DE9F84F6B4833
S3150000C630007800287DD0614D042300262978B14674
S3150000C640481C28705F48007800EB400293405B1E50
S3150000C6500092994202DB85F800900126604A002488
S3150000C6601188FF2901D2491C11805E4931F810E07A
S3150000C6705B4909888E4500D101240020DFF86881D6
S3150000C6804FF0010ADFF864B144E0002276B11BF8EE
S3150000C69000105B46FF2901D2491C195418F80010F6
S3150000C6A021B11BF800308B4200D30122009918F803
S3150000C6B0007002238B4007FA03F1714502DA0FB1CD
S3150000C6C0012300E000233CB133B1D5F810C00AFACB
S3150000C6D000F141EA0C0129613549095C8F420ED00F
S3150000C6E01BF800708F4208D3D5F810C00AFA00F77D
S3150000C6F047EA0C072F6185F8009008F800103AB158
S3150000C70023B92A690AFA00F1114329610BF800904E
S3150000C710401CC0B2284909788842B6D314B13049C2
S3150000C720A1F800902869002807D06888002804D15D
S3150000C73000E002E0BDE8F84F97E6BDE8F88F2C4828
S3150000C740006868B14FF6FF7420462146FDF733FEB8
S3150000C750FDF72DFE0007F7D50020FFF786FEF3E76D
S3150000C7602348006868B14FF6FF7420462146FDF75E
S3150000C77022FEFDF71CFE4007F7D50020FFF707FF56
S3150000C780F3E71B48006850B14FF6FF742046214678
S3150000C790FDF711FEFDF70BFEFFF739FFF6E729E07F
S3150000C7A0C8000020A00400203000002098F3FF1FDE
S3150000C7B02F000020240000208CE80000D00000207C
S3150000C7C088E80000AB00002082E800008EE8000048
S3150000C7D083E8000090E800008DE80000A900002032
S3150000C7E02C00002084E8000028E0FF1F2E00002017
S3150000C7F0B4E800002DE9F04107461D4816460088BA
S3150000C800824202DD0020BDE8F0811A480078002847
S3150000C810F9D0194C01224FF00008E26000E098B10F
S3150000C8206288002AFBD1154D3246681C2F7001F034
S3150000C830A9FC6561A4F80480668011480078012887
S3150000C8400BD86D1C65610BE0C4F80C80C4F814802D
S3150000C850A4F80480A4F80280D4E76088401C6080B5
S3150000C8600020FFF702FE074800F807800120CAE70C
S3150000C8708EE80000A9000020D0000020A0040020BF
S3150000C8808CE800002E000020704770477047704704
S3150000C89010B50446FEF7F7FE200605D504F00F0195
S3150000C8A04FF48030884001E00120A040FB490A682F
S3150000C8B01043086010BDFA48007900F08F010806A1
S3150000C8C005D501F00F004FF48032824001E00122CD
S3150000C8D08A40F448007840F0800088420CD1EF4945
S3150000C8E00968114208D0F049F04A0968914203D11B
S3150000C8F00D22ED49FEF72BBF7047ED490020086079
S3150000C900E9490860EB49087001207047EA490020B0
S3150000C910087001207047E44910B5E4480860E14812
S3150000C9200D22007840F08000FEF711FFE149052056
S3150000C930087010BDDF4910B54868C86008B101200D
S3150000C94010BDD9481F38816859B1007B000604D54F
S3150000C950D448007840F0800001E0D8480078FFF71E
S3150000C96097FFD14901200873FFF7D5FF002010BDBE
S3150000C9702DE9F041CF4DCB480026AA690078696AB7
S3150000C980C94F40F080008046914206D30024FFF74D
S3150000C9907FFF3E73FFF7BFFF08E0CA48C84900782B
S3150000C9A031F81040E86A844200D30446FFF7C2FF1C
S3150000C9B000B90024A86A20B364B1A96AE8692246CE
S3150000C9C001444046FEF7C3FEA86A2044A862E86A0E
S3150000C9D0001BE862D5E90410AA6A4143914203D1DB
S3150000C9E0AE62696A08446862B868001BB860002CC9
S3150000C9F005D0E86AB0B12878022800D03E73BDE8B9
S3150000CA00F081002CE6D0E96A28690144491EB1FB91
S3150000CA10F0F26869824200D90246E969686AFDF760
S3150000CA20E3FFCAE703202870E8E72DE9F041A14DAE
S3150000CA3000269D4FA969686A884207D39F482E63DE
S3150000CA400078FFF725FF3E73FFF765FFFFF772FFDC
S3150000CA5000B92E6300209C4905E0AB6AEC690A5CCC
S3150000CA600344401CE2542A6B9042F6D3A86A110094
S3150000CA700844A862EA6AA2EB0102EA6222D092B9ED
S3150000CA8088B129690844401EB0FBF1F46869844204
S3150000CA9000D904462246E969686AFEF737F8AE62AD
S3150000CAA0686A20440DE0D5E9041202FB01F38342D3
S3150000CAB008D1E969686AFEF729F8AE626969686AA9
S3150000CAC008446862B968286B091AB960002896D0CC
S3150000CAD0E86A10B12878052891D13E73BDE8F04187
S3150000CAE019E78CE72DE9F041724C00256E4EA169DD
S3150000CAF0606A884207D3714825630078FFF7C8FE4D
S3150000CB003573FFF708FFFFF715FF20B1206B08B359
S3150000CB10A06A10B10FE0256320E0E16A20690144B4
S3150000CB20491EB1FBF0F26069824200D90246E16912
S3150000CB30606AFDF759FF00206349A36A226B0BE088
S3150000CB40D4F81CC01F181CF8077011F800C0674500
S3150000CB5001D0256202E0401C9042F1D3A16A206B0D
S3150000CB600A18A262E16A0B1AE362D4E904714F4320
S3150000CB70974203D1A562626A11446162B168091ADB
S3150000CB80B16000280CD013B12078052808D1206A9E
S3150000CB9020B100203073BDE8F041BCE60120F9E782
S3150000CBA02DE770B5404C434D1F3CD4F8110000BA38
S3150000CBB020F0FF01207D01430020C5E90910E07B3C
S3150000CBC02F280AD004DC28280BD02A2817D104E005
S3150000CBD0A8280DD0AA2812D106E0FFF7ABFE002840
S3150000CBE026D0E08A41BA0AE0FFF7A4FE00281FD04B
S3150000CBF0D4F8150000BA20F0FF01207E0143286911
S3150000CC00294E4143E962A068012568B1884210D0E7
S3150000CC10207B000604D52348007840F0800001E020
S3150000CC2026480078FFF734FE3573FFF774FE0020C0
S3150000CC3070BD012070BD70B51B481B4D1F38022406
S3150000CC40816831B1007B000608D41C480078FFF7E4
S3150000CC501FFE2C73FFF75FFE002070BD012070BD24
S3150000CC6010B51148134C1F388068216B884202D8D2
S3150000CC702063032000E0042020700A481249226B3A
S3150000CC80007840F08000FEF762FD0748226B81685D
S3150000CC90891A81600021017310BD0000B4000020D4
S3150000CCA0C800002093E8000013F5FF1F55534253B8
S3150000CCB0B8000020F40000202400002094E80000C2
S3150000CCC096E80000AB000020E1040020F74810B50C
S3150000CCD0816800F11F0469B1007B000604D5F448A1
S3150000CCE0007840F0800001E0F2480078FFF7D0FDC0
S3150000CCF0012004E0FFF71EFE0028CDD0002020739F
S3150000CD00BDE8104007E6C7E710B5FFF794FF002817
S3150000CD10C2D0E9487021E94B017000214170DC68FE
S3150000CD205A6832EA040406D0062484702824047360
S3150000CD304173DA6009E0DAB1DC4A1F32127BDAB1FC
S3150000CD4005228270202202734173C1700171417104
S3150000CD5081710A22C271017241728172C17281733C
S3150000CD60C1730174417412201863BDE8104077E75F
S3150000CD70022282703A22E6E781700173E4E78BE7CC
S3150000CD8010B5FFF758FF002886D0CB4B0020802136
S3150000CD901870597002219970D97020241C7158712D
S3150000CDA09871D871C648016808200A7812B11A54D9
S3150000CDB0491C00E01C54401CC0B22428F5D3BF49CE
S3150000CDC024200863BDE810404AE765E7B74810B578
S3150000CDD0817C00F11F0421B101202073BDE81040C1
S3150000CDE099E5C07CB54900F001004860FFF74FFDAA
S3150000CDF00020F2E7AD48C07CC107AC4800F11F0037
S3150000CE0000D00121017386E510B5FFF714FF002855
S3150000CE101AD0FFF78FFD002816D0A748032100225D
S3150000CE200170A64942700B7ADB018370C270042040
S3150000CE3008639E491F318A68042A02D99B4A90607A
S3150000CE408860BDE810400BE726E710B5FFF7F3FE54
S3150000CE5000281ED0FFF76EFD00281AD09648002144
S3150000CE6006220170954B427081701A7AD201C27007
S3150000CE70017141718171C1718C4908201F3118639C
S3150000CE808A68082A02D9894A90608860BDE81040FD
S3150000CE90E6E601E710B5FFF7CEFE00281BD0FFF748
S3150000CEA049FD002817D0854A83489169491E0B0E13
S3150000CEB003700B0C43700B0A8370C17011690B0E63
S3150000CEC003710B0C43710B0A8371C1710820106347
S3150000CED0BDE81040C4E6DFE610B5FFF7ACFE00285B
S3150000CEE028D0FFF727FD002824D073480021734A75
S3150000CEF00170417081700821C17091690B0E037138
S3150000CF000B0C43710B0A8371C17102210172116905
S3150000CF100B0C43720B0A8372C17264490C201F31D9
S3150000CF2010638A680C2A02D9604A90608860BDE85E
S3150000CF30104095E6B0E65D4900201F310873EAE42B
S3150000CF4070B5FFF778FE00281CD05B4802225B4DC7
S3150000CF5002704270554C03202A631F342870A06863
S3150000CF60022802D951488260A2605148524900788D
S3150000CF7040F08000FEF7EBFBA068296B401AA0602A
S3150000CF800120207370BD10B5FFF755FE002818D09C
S3150000CF9049482022002102704170484CC177032085
S3150000CFA02263207042484449007840F08000FEF732
S3150000CFB0CEFB3E48226B1F308168891A81600121B1
S3150000CFC0017369E62DE9F0473C4E0020374D3A4A99
S3150000CFD0316B02E0135C2B54401C8842FAD3344C6C
S3150000CFE00127DFF8D09020781F2940F0800A6BD106
S3150000CFF028683449884267D12C4C68681F346060C1
S3150000D000A868A060687B18B9A87B08B1102801D968
S3150000D010277381E0E87B4FF0020828286AD01BDCE2
S3150000D0201A285BD00DDC0428F2D005DCE8B303280F
S3150000D030EED1BDE8F04767E61228E9D1BDE8F04732
S3150000D0409EE61B2844D01E2845D0232849D02528F3
S3150000D050DED1BDE8F0471DE791286DD013DC3528F9
S3150000D0606AD009DC2A2816D02F28D1D1287C80073F
S3150000D07056D4002020734FE05528C9D05A28C7D16E
S3150000D080BDE8F047E1E69E2831D0A1282CD0A8289B
S3150000D09030D0AA28BCD1FFF784FD002803D0287B16
S3150000D0A0000647D43770BDE8F0870EE0F4F4FF1FA2
S3150000D0B093E8000094E80000E1040020F40000205A
S3150000D0C024E0FF1F5553424339E0BDE8F047FDE534
S3150000D0D0BDE8F0477AE6BDE8F0478BE6BDE8F047E5
S3150000D0E092E6BDE8F047F7E6BDE8F04728E7BDE879
S3150000D0F0F04748E7FFF755FD0028D4D0287B000607
S3150000D10004D586F80080BDE8F04731E499F80000C0
S3150000D110FFF7BEFB84F80C80BDE8F047FFF7FBBBCA
S3150000D120FFF73FFD0028BED0287B000602D43770EB
S3150000D1303762B8E75046EBE7BDE8F047FBE65046F6
S3150000D140FFF7A6FB2078534C00F00F014FF4803018
S3150000D150884021684D460843206099F80000FFF793
S3150000D16097FB2878874020680743062027603070A1
S3150000D17099E7494910B50878022808D0032810D045
S3150000D180042812D0052801D10020087084E5434800
S3150000D190C07B282801D0A828F8D1BDE81040FFF7A9
S3150000D1A0E7BBBDE81040FFF7B6BB3D48007840F04E
S3150000D1B08000FFF76DFBF4E7374810B5007878B1CB
S3150000D1C0012810D005281CD036480078FFF760FBF0
S3150000D1D0324902201F310873BDE81040FFF79BBBA0
S3150000D1E0BDE81040EEE62D48C07B2A2803D02F2844
S3150000D1F004D0AA2805D1BDE8104016E4BDE81040C9
S3150000D20070E449E5B5E7274810B527490078FEF7E9
S3150000D21051FA21490863BDE81040CDE710B5044630
S3150000D220400702D50020FFF7EEFF200702D5BDE834
S3150000D23010409EE730E51D48006860B14FF6FF7468
S3150000D24020462146FDF7B7F8FDF7B1F80007F7D5F8
S3150000D250FFF78FFFF4E71548006868B14FF6FF74D3
S3150000D26020462146FDF7A7F8FDF7A1F84007F7D5B8
S3150000D2700020FFF7C8FFF3E70C48006850B14FF6EF
S3150000D280FF7420462146FDF796F8FDF790F8FFF764
S3150000D290C5FFF6E7B8000020F4000020F4F4FF1FF5
S3150000D2A093E8000094E80000E1040020B4E80000E0
S3150000D2B010B5428C920803D1234A1288C2F38D021C
S3150000D2C0836A03EB82035A0700D51B1F403B4FF0CE
S3150000D2D08072C3E90E120022144643F82240521C03
S3150000D2E00E2AFAD3C2691A624362C162806A17497A
S3150000D2F0016010BD16480068C0010BD515480068CE
S3150000D300C00707D0134880380068002802DA12499F
S3150000D3100120087070474FF06042D36F002BFCD09D
S3150000D320C36AD367D36F002BFCD0C07840EA0120D4
S3150000D330A2F87C0070474FF06041CA6F002AFCD00B
S3150000D34081F87C00704700005CE80000A52E5AE2D8
S3150000D350FCED00E0800E00E008E1FF1F70B503461B
S3150000D36045480D460468208B42B133EA000101D0DE
S3150000D370062109E098432083022070BD10EA0301CC
S3150000D38001D06183F6E705216383284600F0F4FCAB
S3150000D390012070BD024670B5384800EB810050F898
S3150000D3A0044C002C22D0208B104320836178658B9F
S3150000D3B0062918D0052919D1284217D005EA0001F7
S3150000D3C06183A8432083204600F023F9208BA843DD
S3150000D3D0208301206070022084F820002046BDE8EA
S3150000D3E0704000F0ACBC35EA0001EAD070BD234ABB
S3150000D3F002EB810151F8041C002902D00A8B8243FA
S3150000D4000A83704702461D4810B500EB810050F8AC
S3150000D410040C002806D0114600F00FF9BDE81040B4
S3150000D42000F0D7BB10BD14480068408B704710B59C
S3150000D4300446008B084320836278618B062A16D047
S3150000D440052A17D1084215D001EA000262838843F3
S3150000D4502083204600F0DDF801206070022084F869
S3150000D46020002146BDE81040054800F00BB831EA1F
S3150000D4700002ECD010BD00003401002064F3FF1F51
S3150000D48020F5FF1F30B502780024022A03D0012AB6
S3150000D49001D0032A00D101248B7800E010464268AF
S3150000D4A012B195789D42F9D24A6041601CB102B131
S3150000D4B09160886030BD0020FBE70146406800238C
S3150000D4C042684A600A78022A05D0012A03D0032A54
S3150000D4D001D04360704742680AB19160436083603F
S3150000D4E070476A494A684260002282604860704715
S3150000D4F06649674B48681B6882789B789A4202D1D6
S3150000D50042684A60704700207047816839B14268B6
S3150000D5104A604168002901D08068886070475B498D
S3150000D52006E04A68824202D1406848607047114668
S3150000D5300029F6D1704710B5836804462BB9607888
S3150000D54001280DD1514B03E09B6818780028FBD0C9
S3150000D5502046FFF7DAFF2146BDE81040184691E75E
S3150000D56010BD4A4A10B51832D368ABB113469B8A30
S3150000D57003E08CB12246A48A2344D4688B42F8D3B4
S3150000D580C460D0600261C46804B12061591A818206
S3150000D590908A401A908210BD0024C460D060C91AD7
S3150000D5A002619182848210BD70B5384E1836F068DB
S3150000D5B000282DD0B08A401EB082002522E0A06847
S3150000D5C038B161684160606810B1A16881606560CA
S3150000D5D0A56021462D48FFF755FFA08AB0826078E6
S3150000D5E0042804D12B49E08A09880844A082012036
S3150000D5F0607084F82000E068F060E06808B10661B9
S3150000D600E5602561B08A002802D1F468002CD6D1E5
S3150000D61070BD10B5016900290ED0C268CA60C36822
S3150000D62000223BB18B8A848A23448B82C3681961AA
S3150000D630C26000E08A82026110BDF0B4164FBC1CC5
S3150000D640FE783D46D4E84F3FB34202D1BFF32F8F59
S3150000D6500EE05B1CC4E8423F002AF3D1D5E84F3FF9
S3150000D6605A1CB24200D10022C5E8442F002CF5D145
S3150000D670FA789A4205D907EBC302C2E90101F0BC68
S3150000D6807047F0BC0220FBF723BE000020F5FF1F09
S3150000D6903401002014E1FF1F40F3FF1F0122027036
S3150000D6A00022427042600281428110398281C1F3B8
S3150000D6B08F01C18170472DE9F04117460C468189DB
S3150000D6C0994D4268002602B149B1C389994229D1D0
S3150000D6D0BFB195490968BAB1FFF7D4FE1BE0FFF761
S3150000D6E0ECFE0746C0690460042087F8200038462F
S3150000D6F0FFF78FFF384600F022FB286880F820608D
S3150000D70025E00120BDE8F081416029684E60296866
S3150000D71088600121417028680821C461384600F0FC
S3150000D7202BFBEEE7018900EB81010C6100F10C0196
S3150000D730D1E85F2F521CC1E8532F002BF8D1018985
S3150000D740491C89B20181C289914200D1068100201B
S3150000D750D8E72DE9F04104468089734F90460D467F
S3150000D7600026A8B3608904EB800000690860608920
S3150000D770401C80B26081E189884200D16681606880
S3150000D780E0B12046FFF799FE80F820602189054622
S3150000D79004EB8101C06908612089401C80B22081A8
S3150000D7A0E189884200D126812846FFF732FF2846C4
S3150000D7B000F0C5FA386880F8206007E00C34D4E839
S3150000D7C05F0F401EC4E8510F0029F8D1002099E7E9
